{
  "_format": "hh-sol-artifact-1",
  "contractName": "YapmonCards",
  "sourceName": "contracts/YapmonCards.sol",
  "abi": [
    {
      "inputs": [
        {
          "internalType": "address",
          "name": "initialOwner",
          "type": "address"
        }
      ],
      "stateMutability": "nonpayable",
      "type": "constructor"
    },
    {
      "inputs": [
        {
          "internalType": "address",
          "name": "sender",
          "type": "address"
        },
        {
          "internalType": "uint256",
          "name": "tokenId",
          "type": "uint256"
        },
        {
          "internalType": "address",
          "name": "owner",
          "type": "address"
        }
      ],
      "name": "ERC721IncorrectOwner",
      "type": "error"
    },
    {
      "inputs": [
        {
          "internalType": "address",
          "name": "operator",
          "type": "address"
        },
        {
          "internalType": "uint256",
          "name": "tokenId",
          "type": "uint256"
        }
      ],
      "name": "ERC721InsufficientApproval",
      "type": "error"
    },
    {
      "inputs": [
        {
          "internalType": "address",
          "name": "approver",
          "type": "address"
        }
      ],
      "name": "ERC721InvalidApprover",
      "type": "error"
    },
    {
      "inputs": [
        {
          "internalType": "address",
          "name": "operator",
          "type": "address"
        }
      ],
      "name": "ERC721InvalidOperator",
      "type": "error"
    },
    {
      "inputs": [
        {
          "internalType": "address",
          "name": "owner",
          "type": "address"
        }
      ],
      "name": "ERC721InvalidOwner",
      "type": "error"
    },
    {
      "inputs": [
        {
          "internalType": "address",
          "name": "receiver",
          "type": "address"
        }
      ],
      "name": "ERC721InvalidReceiver",
      "type": "error"
    },
    {
      "inputs": [
        {
          "internalType": "address",
          "name": "sender",
          "type": "address"
        }
      ],
      "name": "ERC721InvalidSender",
      "type": "error"
    },
    {
      "inputs": [
        {
          "internalType": "uint256",
          "name": "tokenId",
          "type": "uint256"
        }
      ],
      "name": "ERC721NonexistentToken",
      "type": "error"
    },
    {
      "inputs": [
        {
          "internalType": "address",
          "name": "owner",
          "type": "address"
        }
      ],
      "name": "OwnableInvalidOwner",
      "type": "error"
    },
    {
      "inputs": [
        {
          "internalType": "address",
          "name": "account",
          "type": "address"
        }
      ],
      "name": "OwnableUnauthorizedAccount",
      "type": "error"
    },
    {
      "inputs": [],
      "name": "ReentrancyGuardReentrantCall",
      "type": "error"
    },
    {
      "anonymous": false,
      "inputs": [
        {
          "indexed": true,
          "internalType": "address",
          "name": "owner",
          "type": "address"
        },
        {
          "indexed": true,
          "internalType": "address",
          "name": "approved",
          "type": "address"
        },
        {
          "indexed": true,
          "internalType": "uint256",
          "name": "tokenId",
          "type": "uint256"
        }
      ],
      "name": "Approval",
      "type": "event"
    },
    {
      "anonymous": false,
      "inputs": [
        {
          "indexed": true,
          "internalType": "address",
          "name": "owner",
          "type": "address"
        },
        {
          "indexed": true,
          "internalType": "address",
          "name": "operator",
          "type": "address"
        },
        {
          "indexed": false,
          "internalType": "bool",
          "name": "approved",
          "type": "bool"
        }
      ],
      "name": "ApprovalForAll",
      "type": "event"
    },
    {
      "anonymous": false,
      "inputs": [
        {
          "indexed": false,
          "internalType": "string",
          "name": "newURI",
          "type": "string"
        }
      ],
      "name": "BaseURIUpdated",
      "type": "event"
    },
    {
      "anonymous": false,
      "inputs": [
        {
          "indexed": true,
          "internalType": "address",
          "name": "owner",
          "type": "address"
        },
        {
          "indexed": false,
          "internalType": "uint256",
          "name": "amount",
          "type": "uint256"
        }
      ],
      "name": "FundsWithdrawn",
      "type": "event"
    },
    {
      "anonymous": false,
      "inputs": [
        {
          "indexed": true,
          "internalType": "address",
          "name": "recipient",
          "type": "address"
        },
        {
          "indexed": true,
          "internalType": "uint256",
          "name": "tokenId",
          "type": "uint256"
        },
        {
          "indexed": false,
          "internalType": "uint256",
          "name": "yapScore",
          "type": "uint256"
        },
        {
          "indexed": false,
          "internalType": "uint256",
          "name": "timestamp",
          "type": "uint256"
        }
      ],
      "name": "Mint",
      "type": "event"
    },
    {
      "anonymous": false,
      "inputs": [
        {
          "indexed": false,
          "internalType": "uint256",
          "name": "newCost",
          "type": "uint256"
        }
      ],
      "name": "MintingCostUpdated",
      "type": "event"
    },
    {
      "anonymous": false,
      "inputs": [
        {
          "indexed": true,
          "internalType": "address",
          "name": "previousOwner",
          "type": "address"
        },
        {
          "indexed": true,
          "internalType": "address",
          "name": "newOwner",
          "type": "address"
        }
      ],
      "name": "OwnershipTransferred",
      "type": "event"
    },
    {
      "anonymous": false,
      "inputs": [
        {
          "indexed": true,
          "internalType": "address",
          "name": "from",
          "type": "address"
        },
        {
          "indexed": true,
          "internalType": "address",
          "name": "to",
          "type": "address"
        },
        {
          "indexed": true,
          "internalType": "uint256",
          "name": "tokenId",
          "type": "uint256"
        }
      ],
      "name": "Transfer",
      "type": "event"
    },
    {
      "inputs": [
        {
          "internalType": "address",
          "name": "to",
          "type": "address"
        },
        {
          "internalType": "uint256",
          "name": "tokenId",
          "type": "uint256"
        }
      ],
      "name": "approve",
      "outputs": [],
      "stateMutability": "nonpayable",
      "type": "function"
    },
    {
      "inputs": [
        {
          "internalType": "address",
          "name": "owner",
          "type": "address"
        }
      ],
      "name": "balanceOf",
      "outputs": [
        {
          "internalType": "uint256",
          "name": "",
          "type": "uint256"
        }
      ],
      "stateMutability": "view",
      "type": "function"
    },
    {
      "inputs": [
        {
          "internalType": "uint256",
          "name": "tokenId",
          "type": "uint256"
        }
      ],
      "name": "getApproved",
      "outputs": [
        {
          "internalType": "address",
          "name": "",
          "type": "address"
        }
      ],
      "stateMutability": "view",
      "type": "function"
    },
    {
      "inputs": [
        {
          "internalType": "address",
          "name": "owner",
          "type": "address"
        },
        {
          "internalType": "address",
          "name": "operator",
          "type": "address"
        }
      ],
      "name": "isApprovedForAll",
      "outputs": [
        {
          "internalType": "bool",
          "name": "",
          "type": "bool"
        }
      ],
      "stateMutability": "view",
      "type": "function"
    },
    {
      "inputs": [
        {
          "internalType": "address",
          "name": "recipient",
          "type": "address"
        },
        {
          "internalType": "uint256",
          "name": "yapScore",
          "type": "uint256"
        }
      ],
      "name": "mintYapmon",
      "outputs": [
        {
          "internalType": "uint256",
          "name": "",
          "type": "uint256"
        }
      ],
      "stateMutability": "payable",
      "type": "function"
    },
    {
      "inputs": [],
      "name": "mintingCost",
      "outputs": [
        {
          "internalType": "uint256",
          "name": "",
          "type": "uint256"
        }
      ],
      "stateMutability": "view",
      "type": "function"
    },
    {
      "inputs": [],
      "name": "name",
      "outputs": [
        {
          "internalType": "string",
          "name": "",
          "type": "string"
        }
      ],
      "stateMutability": "view",
      "type": "function"
    },
    {
      "inputs": [],
      "name": "owner",
      "outputs": [
        {
          "internalType": "address",
          "name": "",
          "type": "address"
        }
      ],
      "stateMutability": "view",
      "type": "function"
    },
    {
      "inputs": [
        {
          "internalType": "uint256",
          "name": "tokenId",
          "type": "uint256"
        }
      ],
      "name": "ownerOf",
      "outputs": [
        {
          "internalType": "address",
          "name": "",
          "type": "address"
        }
      ],
      "stateMutability": "view",
      "type": "function"
    },
    {
      "inputs": [],
      "name": "renounceOwnership",
      "outputs": [],
      "stateMutability": "nonpayable",
      "type": "function"
    },
    {
      "inputs": [
        {
          "internalType": "address",
          "name": "from",
          "type": "address"
        },
        {
          "internalType": "address",
          "name": "to",
          "type": "address"
        },
        {
          "internalType": "uint256",
          "name": "tokenId",
          "type": "uint256"
        }
      ],
      "name": "safeTransferFrom",
      "outputs": [],
      "stateMutability": "nonpayable",
      "type": "function"
    },
    {
      "inputs": [
        {
          "internalType": "address",
          "name": "from",
          "type": "address"
        },
        {
          "internalType": "address",
          "name": "to",
          "type": "address"
        },
        {
          "internalType": "uint256",
          "name": "tokenId",
          "type": "uint256"
        },
        {
          "internalType": "bytes",
          "name": "data",
          "type": "bytes"
        }
      ],
      "name": "safeTransferFrom",
      "outputs": [],
      "stateMutability": "nonpayable",
      "type": "function"
    },
    {
      "inputs": [
        {
          "internalType": "address",
          "name": "operator",
          "type": "address"
        },
        {
          "internalType": "bool",
          "name": "approved",
          "type": "bool"
        }
      ],
      "name": "setApprovalForAll",
      "outputs": [],
      "stateMutability": "nonpayable",
      "type": "function"
    },
    {
      "inputs": [
        {
          "internalType": "string",
          "name": "baseURI",
          "type": "string"
        }
      ],
      "name": "setBaseURI",
      "outputs": [],
      "stateMutability": "nonpayable",
      "type": "function"
    },
    {
      "inputs": [
        {
          "internalType": "uint256",
          "name": "newCost",
          "type": "uint256"
        }
      ],
      "name": "setMintingCost",
      "outputs": [],
      "stateMutability": "nonpayable",
      "type": "function"
    },
    {
      "inputs": [
        {
          "internalType": "bytes4",
          "name": "interfaceId",
          "type": "bytes4"
        }
      ],
      "name": "supportsInterface",
      "outputs": [
        {
          "internalType": "bool",
          "name": "",
          "type": "bool"
        }
      ],
      "stateMutability": "view",
      "type": "function"
    },
    {
      "inputs": [],
      "name": "symbol",
      "outputs": [
        {
          "internalType": "string",
          "name": "",
          "type": "string"
        }
      ],
      "stateMutability": "view",
      "type": "function"
    },
    {
      "inputs": [
        {
          "internalType": "uint256",
          "name": "tokenId",
          "type": "uint256"
        }
      ],
      "name": "tokenURI",
      "outputs": [
        {
          "internalType": "string",
          "name": "",
          "type": "string"
        }
      ],
      "stateMutability": "view",
      "type": "function"
    },
    {
      "inputs": [
        {
          "internalType": "address",
          "name": "from",
          "type": "address"
        },
        {
          "internalType": "address",
          "name": "to",
          "type": "address"
        },
        {
          "internalType": "uint256",
          "name": "tokenId",
          "type": "uint256"
        }
      ],
      "name": "transferFrom",
      "outputs": [],
      "stateMutability": "nonpayable",
      "type": "function"
    },
    {
      "inputs": [
        {
          "internalType": "address",
          "name": "newOwner",
          "type": "address"
        }
      ],
      "name": "transferOwnership",
      "outputs": [],
      "stateMutability": "nonpayable",
      "type": "function"
    },
    {
      "inputs": [],
      "name": "withdraw",
      "outputs": [],
      "stateMutability": "nonpayable",
      "type": "function"
    }
  ],
  "bytecode": "0x608060405266038d7ea4c68000600a553480156200001c57600080fd5b5060405162001d4f38038062001d4f8339810160408190526200003f9162000168565b806040518060400160405280600b81526020016a5961706d6f6e436172647360a81b815250604051806040016040528060068152602001652ca0a826a7a760d11b81525081600090816200009491906200023f565b506001620000a382826200023f565b5050506001600160a01b038116620000d557604051631e4fbdf760e01b81526000600482015260240160405180910390fd5b620000e08162000116565b5060016007556040805160608101909152602680825262001d2960208301396009906200010e90826200023f565b50506200030b565b600680546001600160a01b038381166001600160a01b0319831681179093556040519116919082907f8be0079c531659141344cd1fd0a4f28419497f9722a3daafe3b4186f6b6457e090600090a35050565b6000602082840312156200017b57600080fd5b81516001600160a01b03811681146200019357600080fd5b9392505050565b634e487b7160e01b600052604160045260246000fd5b600181811c90821680620001c557607f821691505b602082108103620001e657634e487b7160e01b600052602260045260246000fd5b50919050565b601f8211156200023a57600081815260208120601f850160051c81016020861015620002155750805b601f850160051c820191505b81811015620002365782815560010162000221565b5050505b505050565b81516001600160401b038111156200025b576200025b6200019a565b62000273816200026c8454620001b0565b84620001ec565b602080601f831160018114620002ab5760008415620002925750858301515b600019600386901b1c1916600185901b17855562000236565b600085815260208120601f198616915b82811015620002dc57888601518255948401946001909101908401620002bb565b5085821015620002fb5787850151600019600388901b60f8161c191681555b5050505050600190811b01905550565b611a0e806200031b6000396000f3fe60806040526004361061016a5760003560e01c806370a08231116100cb578063b88d4fde1161007f578063ebf98abf11610059578063ebf98abf146103e7578063ee0b4c35146103fd578063f2fde38b1461041d57600080fd5b8063b88d4fde1461035e578063c87b56dd1461037e578063e985e9c51461039e57600080fd5b80638da5cb5b116100b05780638da5cb5b1461030b57806395d89b4114610329578063a22cb4651461033e57600080fd5b806370a08231146102d6578063715018a6146102f657600080fd5b80633ccfd60b1161012257806345e4155a1161010757806345e4155a1461027557806355f804b3146102965780636352211e146102b657600080fd5b80633ccfd60b1461024057806342842e0e1461025557600080fd5b8063081812fc11610153578063081812fc146101c6578063095ea7b3146101fe57806323b872dd1461022057600080fd5b806301ffc9a71461016f57806306fdde03146101a4575b600080fd5b34801561017b57600080fd5b5061018f61018a3660046113b9565b61043d565b60405190151581526020015b60405180910390f35b3480156101b057600080fd5b506101b96104da565b60405161019b919061142d565b3480156101d257600080fd5b506101e66101e1366004611440565b61056c565b6040516001600160a01b03909116815260200161019b565b34801561020a57600080fd5b5061021e610219366004611475565b610595565b005b34801561022c57600080fd5b5061021e61023b36600461149f565b6105a4565b34801561024c57600080fd5b5061021e61064d565b34801561026157600080fd5b5061021e61027036600461149f565b61076e565b610288610283366004611475565b61078e565b60405190815260200161019b565b3480156102a257600080fd5b5061021e6102b13660046114db565b61090d565b3480156102c257600080fd5b506101e66102d1366004611440565b610960565b3480156102e257600080fd5b506102886102f136600461154d565b61096b565b34801561030257600080fd5b5061021e6109cc565b34801561031757600080fd5b506006546001600160a01b03166101e6565b34801561033557600080fd5b506101b96109de565b34801561034a57600080fd5b5061021e610359366004611568565b6109ed565b34801561036a57600080fd5b5061021e6103793660046115ba565b6109f8565b34801561038a57600080fd5b506101b9610399366004611440565b610a10565b3480156103aa57600080fd5b5061018f6103b9366004611696565b6001600160a01b03918216600090815260056020908152604080832093909416825291909152205460ff1690565b3480156103f357600080fd5b50610288600a5481565b34801561040957600080fd5b5061021e610418366004611440565b610aa9565b34801561042957600080fd5b5061021e61043836600461154d565b610aec565b60006001600160e01b031982167f80ac58cd0000000000000000000000000000000000000000000000000000000014806104a057506001600160e01b031982167f5b5e139f00000000000000000000000000000000000000000000000000000000145b806104d457507f01ffc9a7000000000000000000000000000000000000000000000000000000006001600160e01b03198316145b92915050565b6060600080546104e9906116c9565b80601f0160208091040260200160405190810160405280929190818152602001828054610515906116c9565b80156105625780601f1061053757610100808354040283529160200191610562565b820191906000526020600020905b81548152906001019060200180831161054557829003601f168201915b5050505050905090565b600061057782610b43565b506000828152600460205260409020546001600160a01b03166104d4565b6105a0828233610b7c565b5050565b6001600160a01b0382166105d357604051633250574960e11b8152600060048201526024015b60405180910390fd5b60006105e0838333610b89565b9050836001600160a01b0316816001600160a01b031614610647576040517f64283d7b0000000000000000000000000000000000000000000000000000000081526001600160a01b03808616600483015260248201849052821660448201526064016105ca565b50505050565b610655610c8f565b61065d610cd5565b4760006106726006546001600160a01b031690565b6001600160a01b03168260405160006040518083038185875af1925050503d80600081146106bc576040519150601f19603f3d011682016040523d82523d6000602084013e6106c1565b606091505b50509050806107125760405162461bcd60e51b815260206004820152601160248201527f5769746864726177616c206661696c656400000000000000000000000000000060448201526064016105ca565b6006546001600160a01b03166001600160a01b03167feaff4b37086828766ad3268786972c0cd24259d4c87a80f9d3963a3c3d999b0d8360405161075891815260200190565b60405180910390a2505061076c6001600755565b565b610789838383604051806020016040528060008152506109f8565b505050565b6000610798610cd5565b600a543410156107ea5760405162461bcd60e51b815260206004820152601060248201527f496e73756666696369656e74204554480000000000000000000000000000000060448201526064016105ca565b600880549060006107fa83611719565b909155505060085461080c8482610d18565b600a543411156108bc57600a5460009033906108289034611732565b604051600081818185875af1925050503d8060008114610864576040519150601f19603f3d011682016040523d82523d6000602084013e610869565b606091505b50509050806108ba5760405162461bcd60e51b815260206004820152600d60248201527f526566756e64206661696c65640000000000000000000000000000000000000060448201526064016105ca565b505b6040805184815242602082015282916001600160a01b038716917fb4c03061fb5b7fed76389d5af8f2e0ddb09f8c70d1333abbb62582835e10accb910160405180910390a390506104d46001600755565b610915610c8f565b600961092282848361178b565b507f6741b2fc379fad678116fe3d4d4b9a1a184ab53ba36b86ad0fa66340b1ab41ad828260405161095492919061184b565b60405180910390a15050565b60006104d482610b43565b60006001600160a01b0382166109b0576040517f89c62b64000000000000000000000000000000000000000000000000000000008152600060048201526024016105ca565b506001600160a01b031660009081526003602052604090205490565b6109d4610c8f565b61076c6000610d32565b6060600180546104e9906116c9565b6105a0338383610d91565b610a038484846105a4565b6106473385858585610e49565b6000818152600260205260409020546060906001600160a01b0316610a775760405162461bcd60e51b815260206004820152601460248201527f546f6b656e20646f6573206e6f7420657869737400000000000000000000000060448201526064016105ca565b6009610a8283610f74565b604051602001610a9392919061187a565b6040516020818303038152906040529050919050565b610ab1610c8f565b600a8190556040518181527fd8d75179875a8a783e1c2c14c2b67c5418d3dce5d70e287d612bc437011239ab9060200160405180910390a150565b610af4610c8f565b6001600160a01b038116610b37576040517f1e4fbdf7000000000000000000000000000000000000000000000000000000008152600060048201526024016105ca565b610b4081610d32565b50565b6000818152600260205260408120546001600160a01b0316806104d457604051637e27328960e01b8152600481018490526024016105ca565b61078983838360016110bf565b6000828152600260205260408120546001600160a01b0390811690831615610bb657610bb681848661120a565b6001600160a01b03811615610bf457610bd36000856000806110bf565b6001600160a01b038116600090815260036020526040902080546000190190555b6001600160a01b03851615610c23576001600160a01b0385166000908152600360205260409020805460010190555b600084815260026020526040808220805473ffffffffffffffffffffffffffffffffffffffff19166001600160a01b0389811691821790925591518793918516917fddf252ad1be2c89b69c2b068fc378daa952ba7f163c4a11628f55a4df523b3ef91a4949350505050565b6006546001600160a01b0316331461076c576040517f118cdaa70000000000000000000000000000000000000000000000000000000081523360048201526024016105ca565b600260075403610d11576040517f3ee5aeb500000000000000000000000000000000000000000000000000000000815260040160405180910390fd5b6002600755565b6105a0828260405180602001604052806000815250611287565b600680546001600160a01b0383811673ffffffffffffffffffffffffffffffffffffffff19831681179093556040519116919082907f8be0079c531659141344cd1fd0a4f28419497f9722a3daafe3b4186f6b6457e090600090a35050565b6001600160a01b038216610ddc576040517f5b08ba180000000000000000000000000000000000000000000000000000000081526001600160a01b03831660048201526024016105ca565b6001600160a01b03838116600081815260056020908152604080832094871680845294825291829020805460ff191686151590811790915591519182527f17307eab39ab6107e8899845ad3d59bd9653f200f220920489ca2b5937696c31910160405180910390a3505050565b6001600160a01b0383163b15610f6d57604051630a85bd0160e11b81526001600160a01b0384169063150b7a0290610e8b908890889087908790600401611901565b6020604051808303816000875af1925050508015610ec6575060408051601f3d908101601f19168201909252610ec39181019061193d565b60015b610f2f573d808015610ef4576040519150601f19603f3d011682016040523d82523d6000602084013e610ef9565b606091505b508051600003610f2757604051633250574960e11b81526001600160a01b03851660048201526024016105ca565b805181602001fd5b6001600160e01b03198116630a85bd0160e11b14610f6b57604051633250574960e11b81526001600160a01b03851660048201526024016105ca565b505b5050505050565b606081600003610fb757505060408051808201909152600181527f3000000000000000000000000000000000000000000000000000000000000000602082015290565b6001825b600a8110610fe35781610fcd81611719565b9250610fdc9050600a82611970565b9050610fbb565b60008267ffffffffffffffff811115610ffe57610ffe6115a4565b6040519080825280601f01601f191660200182016040528015611028576020820181803683370190505b509050825b80156110b65761103e600a87611984565b611049906030611998565b60f81b82611058600184611732565b81518110611068576110686119ab565b60200101907effffffffffffffffffffffffffffffffffffffffffffffffffffffffffffff1916908160001a9053506110a2600a87611970565b9550806110ae816119c1565b91505061102d565b50949350505050565b80806110d357506001600160a01b03821615155b156111cd5760006110e384610b43565b90506001600160a01b0383161580159061110f5750826001600160a01b0316816001600160a01b031614155b801561114157506001600160a01b0380821660009081526005602090815260408083209387168352929052205460ff16155b15611183576040517fa9fbf51f0000000000000000000000000000000000000000000000000000000081526001600160a01b03841660048201526024016105ca565b81156111cb5783856001600160a01b0316826001600160a01b03167f8c5be1e5ebec7d5bd14f71427d1e84f3dd0314c0f7b2291e5b200ac8c7c3b92560405160405180910390a45b505b50506000908152600460205260409020805473ffffffffffffffffffffffffffffffffffffffff19166001600160a01b0392909216919091179055565b61121583838361129f565b610789576001600160a01b03831661124357604051637e27328960e01b8152600481018290526024016105ca565b6040517f177e802f0000000000000000000000000000000000000000000000000000000081526001600160a01b0383166004820152602481018290526044016105ca565b6112918383611325565b610789336000858585610e49565b60006001600160a01b0383161580159061131d5750826001600160a01b0316846001600160a01b031614806112f957506001600160a01b0380851660009081526005602090815260408083209387168352929052205460ff165b8061131d57506000828152600460205260409020546001600160a01b038481169116145b949350505050565b6001600160a01b03821661134f57604051633250574960e11b8152600060048201526024016105ca565b600061135d83836000610b89565b90506001600160a01b03811615610789576040517f73c6ac6e000000000000000000000000000000000000000000000000000000008152600060048201526024016105ca565b6001600160e01b031981168114610b4057600080fd5b6000602082840312156113cb57600080fd5b81356113d6816113a3565b9392505050565b60005b838110156113f85781810151838201526020016113e0565b50506000910152565b600081518084526114198160208601602086016113dd565b601f01601f19169290920160200192915050565b6020815260006113d66020830184611401565b60006020828403121561145257600080fd5b5035919050565b80356001600160a01b038116811461147057600080fd5b919050565b6000806040838503121561148857600080fd5b61149183611459565b946020939093013593505050565b6000806000606084860312156114b457600080fd5b6114bd84611459565b92506114cb60208501611459565b9150604084013590509250925092565b600080602083850312156114ee57600080fd5b823567ffffffffffffffff8082111561150657600080fd5b818501915085601f83011261151a57600080fd5b81358181111561152957600080fd5b86602082850101111561153b57600080fd5b60209290920196919550909350505050565b60006020828403121561155f57600080fd5b6113d682611459565b6000806040838503121561157b57600080fd5b61158483611459565b91506020830135801515811461159957600080fd5b809150509250929050565b634e487b7160e01b600052604160045260246000fd5b600080600080608085870312156115d057600080fd5b6115d985611459565b93506115e760208601611459565b925060408501359150606085013567ffffffffffffffff8082111561160b57600080fd5b818701915087601f83011261161f57600080fd5b813581811115611631576116316115a4565b604051601f8201601f19908116603f01168101908382118183101715611659576116596115a4565b816040528281528a602084870101111561167257600080fd5b82602086016020830137600060208483010152809550505050505092959194509250565b600080604083850312156116a957600080fd5b6116b283611459565b91506116c060208401611459565b90509250929050565b600181811c908216806116dd57607f821691505b6020821081036116fd57634e487b7160e01b600052602260045260246000fd5b50919050565b634e487b7160e01b600052601160045260246000fd5b60006001820161172b5761172b611703565b5060010190565b818103818111156104d4576104d4611703565b601f82111561078957600081815260208120601f850160051c8101602086101561176c5750805b601f850160051c820191505b81811015610f6b57828155600101611778565b67ffffffffffffffff8311156117a3576117a36115a4565b6117b7836117b183546116c9565b83611745565b6000601f8411600181146117eb57600085156117d35750838201355b600019600387901b1c1916600186901b178355610f6d565b600083815260209020601f19861690835b8281101561181c57868501358255602094850194600190920191016117fc565b50868210156118395760001960f88860031b161c19848701351681555b505060018560011b0183555050505050565b60208152816020820152818360408301376000818301604090810191909152601f909201601f19160101919050565b6000808454611888816116c9565b600182811680156118a057600181146118b5576118e4565b60ff19841687528215158302870194506118e4565b8860005260208060002060005b858110156118db5781548a8201529084019082016118c2565b50505082870194505b5050505083516118f88183602088016113dd565b01949350505050565b60006001600160a01b038087168352808616602084015250836040830152608060608301526119336080830184611401565b9695505050505050565b60006020828403121561194f57600080fd5b81516113d6816113a3565b634e487b7160e01b600052601260045260246000fd5b60008261197f5761197f61195a565b500490565b6000826119935761199361195a565b500690565b808201808211156104d4576104d4611703565b634e487b7160e01b600052603260045260246000fd5b6000816119d0576119d0611703565b50600019019056fea26469706673582212200f16b5c52aaee81c13b4b1b3b39b69419cd3acbae3a7d3c0c99ad9d34c555abe64736f6c6343000814003368747470733a2f2f796f75722d636c6f75642d73746f726167652e636f6d2f7961706d6f6e2f",
  "linkReferences": {},
  "deployedLinkReferences": {}
}